:100000000C942A000C94F9020C947F030C94470082
:100010000C9447000C9447000C9447000C94470044
:100020000C9447000C9447000C9447000C94470034
:100030000C9447000C9447000C9447000C94470024
:100040000C9447000C9447000C9447000C94470014
:100050000C94470011241FBECFE5D8E0DEBFCDBF12
:1000600010E0A0E6B0E0E2EFFDE002C005900D92E6
:10007000A43AB107D9F720E0A4EAB0E001C01D928C
:10008000A53DB207E1F70E947A020C94F7060C94A2
:1000900000004F925F926F927F928F929F92AF92E9
:1000A000BF92CF92DF92EF92FF92CF93DF9300D077
:1000B00000D0CDB7DEB79B01AC01609160007091BC
:1000C000610080916200909163000E9421046B01A5
:1000D0007C016093C2007093C3008093C40090932E
:1000E000C50020916C0030916D0040916E005091E0
:1000F0006F000E94F2052B013C016093BE007093DB
:10010000BF008093C0009093C1002DEB37E346E819
:1001100055E3609168007091690080916A00909148
:100120006B000E94F2059B01AC01C701B6010E9461
:10013000F2052091B6003091B7004091B80050917F
:10014000B9000E9422044B015C016093BA007093D5
:10015000BB008093BC009093BD002091B200309111
:10016000B3004091B4005091B500C701B6010E94A0
:1001700021046093A6007093A7008093A800909339
:10018000A900209164003091650040916600509173
:1001900067000E94F2052DEB37E346E855E30E9425
:1001A000930469837A838B839C836093AE007093FE
:1001B000AF008093B0009093B100A5019401C301FA
:1001C000B2010E9422049B01AC0169817A818B817A
:1001D0009C810E9422046093AA007093AB008093DC
:1001E000AC009093AD0020E030E048EC52E40E9477
:1001F000ED05181664F480E090E0A8ECB2E480937A
:10020000AA009093AB00A093AC00B093AD006091B6
:10021000AA007091AB008091AC009091AD0020E0FD
:1002200030E048EC52EC0E948E04882364F480E0B5
:1002300090E0A8ECB2EC8093AA009093AB00A0935E
:10024000AC00B093AD008092B6009092B700A0923F
:10025000B800B092B900C092B200D092B300E09260
:10026000B400F092B5000F900F900F900F90DF91B7
:10027000CF91FF90EF90DF90CF90BF90AF909F9085
:100280008F907F906F905F904F9008959C0188E4CD
:1002900083BF3093A5002093A400032E000C440BD1
:1002A000550B69E07DE380E090E00E945F062150FD
:1002B0002CBF089512BE83B7816083BF83B78D7F43
:1002C00083BF83B7846083BF0895CF93DF93EC012E
:1002D00087B3886087BB83B78F7E83BF83B7806215
:1002E00083BF2091A4003091A500032E000C440B85
:1002F000550B69E07DE380E090E00E945F062150AD
:10030000310941095109DE010E947E0624E630E0F0
:1003100040E050E00E945F062CBFDF91CF9108952E
:1003200088B38E7F88BB85E08A95F1F7000088B39B
:10033000816088BB0895CF93C62F882321F088B3AE
:10034000826088BB03C088B38D7F88BB83B38F7006
:100350009C2F907F892B85BB0E94900183B390E1F5
:10036000C99FB00111248F70682B65BB0E9490015A
:100370008FE39FE10197F1F700C00000CF9108954E
:1003800087B3836087BB84B3806F84BB88B38E7F61
:1003900088BB83B38F70806385BB2FEF81EE94E0C1
:1003A000215080409040E1F700C000000E94900181
:1003B0008FE19EE40197F1F700C000000E949001D8
:1003C0008FE891E00197F1F700C000000E949001D2
:1003D0008FE891E00197F1F700C0000083B38F70C0
:1003E000806285BB0E9490018FE891E00197F1F750
:1003F00000C000006CE280E00E949B0168E080E0A9
:100400000E949B0161E080E00E949B0166E080E029
:100410000E949B016CE080E00E949B010895CF93B5
:10042000DF93EC016881662329F081E00E949B0143
:100430002196F8CFDF91CF91089582B984EC86BFE1
:10044000089506B607FEFDCF81B1887F803661F042
:10045000883661F0883A61F0803B61F0803761F066
:10046000883779F782E0089580E0089580E0089564
:1004700081E0089581E0089582E0089583B984ECD5
:1004800086BF06B607FEFDCF81B1887F803A29F48A
:1004900086B7806886BF8FEF0895883B59F0803C0F
:1004A00029F486B7806886BF8EEF0895883C21F4D2
:1004B0008DEF089580E008958CEF089584EC86BF59
:1004C00006B607FEFDCF81B1887F803811F08039F4
:1004D00011F483B10895883811F0883911F483B18B
:1004E0000895803A29F486B7806886BF8FEF089513
:1004F0008EEF0895F89480E20E941D0281B38D7FF3
:1005000081BB81B38B7F81BB81B3877F81BB87B385
:10051000886087BB87B3806487BB87B3806887BBED
:1005200088B3806488BB88B38F7788BB83B78F7E9E
:1005300083BF83B7806283BF85B7836085BF8BB776
:1005400080648BBF85B78C6085BF8BB780688BBF9D
:1005500088EC90E00E94460182E390E00E946501F1
:100560000E94C00178940E945A016091D20070915B
:10057000D300072E000C880B990B0E943D050E94AA
:100580004900C090AA00D090AB00E090AC00F09081
:10059000AD0020E030E0A901C701B6010E948E0441
:1005A00088239CF4F7FAF094F7F8F094C092AA002C
:1005B000D092AB00E092AC00F092AD0088B38068BE
:1005C00088BB88B38F7B88BB06C088B3806488BB38
:1005D00088B38F7788BB6091AA007091AB0080913F
:1005E000AC009091AD000E940505CB010E94650111
:1005F000BCCF1F920F920FB60F9211242F933F93EF
:100600004F935F936F937F938F939F93AF93BF931A
:10061000EF93FF93819B13C08091D2009091D30000
:1006200001969093D3008093D2008091D000909156
:10063000D10001969093D1008093D00009C08091A1
:10064000D2009091D30001979093D3008093D20071
:1006500061E080E00E949B014AE060E770E08091E9
:10066000D2009091D3000E94C20660E880E00E9410
:100670009B0185E790E00E940F02609160007091FD
:10068000610080916200909163000E940505DC0189
:10069000CB014AE066EC70E00E94C2066AE880E0A6
:1006A0000E949B0186EC90E00E940F0260EC80E0CB
:1006B0000E949B0180E890E00E940F0268EC80E0BD
:1006C0000E949B0180E790E00E940F026EEC80E0A8
:1006D0000E949B0188E890E00E940F02FF91EF9139
:1006E000BF91AF919F918F917F916F915F914F914A
:1006F0003F912F910F900FBE0F901F9018951F9252
:100700000F920FB60F921124FF920F931F932F9306
:100710003F934F935F936F937F938F939F93AF9389
:10072000BF93EF93FF93CF93DF93CDB7DEB72A97B5
:10073000DEBFCDBF80E20E941D0200E010E00E94FB
:100740002102882319F08130F1F15BC061E080E083
:100750000E949B0160E880E00E949B018BE890E092
:100760000E940F0260EC80E00E949B018091D40007
:100770004AE0BE016F5F7F4F082E000C990B0E946C
:10078000C206CE0101960E940F026091D400062E8F
:10079000000C770B880B990B0E943D05609360005D
:1007A0007093610080936200909363000E945E02E8
:1007B0008093D4008F3FB1F68F3F11F401E010E039
:1007C0001092D4001EC060E880E00E949B0189E97D
:1007D00090E00E940F028091D4000E943E02F82E09
:1007E00060EC80E00E949B016091D400605D81E03C
:1007F0000E949B018091D4008F5F8093D400FF20E2
:1008000051F30130110509F09ACF2A960FB6F894EA
:10081000DEBF0FBECDBFDF91CF91FF91EF91BF91B2
:10082000AF919F918F917F916F915F914F913F9188
:100830002F911F910F91FF900F900FBE0F901F905F
:1008400018955058BB27AA270E9439040C94B30569
:100850000E94A50538F00E94AC0520F039F49F3FB6
:1008600019F426F40C94A2050EF4E095E7FB0C9421
:100870009C05E92F0E94C40558F3BA176207730755
:100880008407950720F079F4A6F50C94E6050EF49C
:10089000E0950B2EBA2FA02D0B01B90190010C0190
:1008A000CA01A0011124FF27591B99F0593F50F4A8
:1008B000503E68F11A16F040A22F232F342F442700
:1008C000585FF3CF469537952795A795F0405395F8
:1008D000C9F77EF41F16BA0B620B730B840BBAF0C8
:1008E0009150A1F0FF0FBB1F661F771F881FC2F733
:1008F0000EC0BA0F621F731F841F48F48795779547
:100900006795B795F7959E3F08F0B0CF9395880F00
:1009100008F09927EE0F9795879508950E9478051E
:1009200008F481E008950E94A7040C94B3050E9486
:10093000AC0558F00E94A50540F029F45F3F29F06E
:100940000C949C0551110C94E7050C94A2050E948F
:10095000C40568F39923B1F3552391F3951B550B07
:10096000BB27AA2762177307840738F09F5F5F4F82
:10097000220F331F441FAA1FA9F335D00E2E3AF0C1
:10098000E0E832D091505040E695001CCAF72BD0D9
:10099000FE2F29D0660F771F881FBB1F261737072A
:1009A0004807AB07B0E809F0BB0B802DBF01FF275C
:1009B00093585F4F3AF09E3F510578F00C949C0598
:1009C0000C94E7055F3FE4F3983ED4F38695779562
:1009D0006795B795F7959F5FC9F7880F911D969515
:1009E000879597F90895E1E0660F771F881FBB1F71
:1009F000621773078407BA0720F0621B730B840B1E
:100A0000BA0BEE1F88F7E09508950E940C056894D4
:100A1000B1110C94E70508950E94CC0588F09F570A
:100A200098F0B92F9927B751B0F0E1F0660F771F12
:100A3000881F991F1AF0BA95C9F714C0B13091F008
:100A40000E94E605B1E008950C94E605672F782F23
:100A50008827B85F39F0B93FCCF3869577956795CD
:100A6000B395D9F73EF490958095709561957F4F39
:100A70008F4F9F4F0895E89409C097FB3EF49095DF
:100A80008095709561957F4F8F4F9F4F9923A9F067
:100A9000F92F96E9BB279395F695879577956795F6
:100AA000B795F111F8CFFAF4BB0F11F460FF1BC03A
:100AB0006F5F7F4F8F4F9F4F16C0882311F096E9CD
:100AC00011C0772321F09EE8872F762F05C066237B
:100AD00071F096E8862F70E060E02AF09A95660F34
:100AE000771F881FDAF7880F9695879597F90895ED
:100AF000990F0008550FAA0BE0E8FEEF161617062F
:100B0000E807F907C0F012161306E407F50798F096
:100B1000621B730B840B950B39F40A2661F0232BAF
:100B2000242B252B21F408950A2609F4A140A6952B
:100B30008FEF811D811D089597F99F6780E870E010
:100B400060E008959FEF80EC089500240A94161643
:100B5000170618060906089500240A9412161306AB
:100B6000140605060895092E0394000C11F4882339
:100B700052F0BB0F40F4BF2B11F460FF04C06F5F55
:100B80007F4F8F4F9F4F089557FD9058440F551F2B
:100B900059F05F3F71F04795880F97FB991F61F0FF
:100BA0009F3F79F087950895121613061406551F76
:100BB000F2CF4695F1DF08C0161617061806991FE2
:100BC000F1CF86957105610508940895E894BB27D7
:100BD00066277727CB0197F908950E94780508F4D6
:100BE0008FEF08950E9405060C94B3050E94A50599
:100BF00038F00E94AC0520F0952311F00C949C0570
:100C00000C94A20511240C94E7050E94C40570F30E
:100C1000959FC1F3950F50E0551F629FF001729FA1
:100C2000BB27F00DB11D639FAA27F00DB11DAA1FB0
:100C3000649F6627B00DA11D661F829F2227B00DFD
:100C4000A11D621F739FB00DA11D621F839FA00D88
:100C5000611D221F749F3327A00D611D231F849FD8
:100C6000600D211D822F762F6A2F11249F5750402F
:100C70009AF0F1F088234AF0EE0FFF1FBB1F661FAA
:100C8000771F881F91505040A9F79E3F510580F073
:100C90000C949C050C94E7055F3FE4F3983ED4F375
:100CA000869577956795B795F795E7959F5FC1F717
:100CB000FE2B880F911D9695879597F90895052E1F
:100CC00097FB1EF400940E94760657FD07D00E9401
:100CD000860607FC03D04EF40C947606509540959A
:100CE000309521953F4F4F4F5F4F089590958095D8
:100CF000709561957F4F8F4F9F4F0895B7FF0C946C
:100D0000A8060E94A806821B930B0895A1E21A2E42
:100D1000AA1BBB1BFD010DC0AA1FBB1FEE1FFF1F9F
:100D2000A217B307E407F50720F0A21BB30BE40BEF
:100D3000F50B661F771F881F991F1A9469F7609536
:100D40007095809590959B01AC01BD01CF010895F0
:100D50000E94B306A59F900DB49F900DA49F800D97
:100D6000911D11240895A29FB001B39FC001A39FBC
:100D7000700D811D1124911DB29F700D811D1124D4
:100D8000911D0895BB274A3031F4992322F4BDE226
:100D9000909581959F4F0C94CE06BB27FB0155275C
:100DA000AA27880F991FAA1FA41710F0A41B8395C8
:100DB0005051B9F7A05DAA3308F0A95DA19300973F
:100DC00079F7B111B1931192CB010C94E706DC01D4
:100DD000FC01672F71917723E1F7329704C07C9172
:100DE0006D9370836291AE17BF07C8F30895F894AE
:020DF000FFCF33
:100DF200000088410AD7233C000040400000204107
:100E0200303030300041637475616C2053503A00C9
:100E120050554C5345533A005331004E6577205399
:100E22006574706F696E743A0053656E64696E67BB
:040E32003A20200042
:00000001FF
