:100000000C942A000C9447000C9424020C94470092
:100010000C9447000C9447000C9447000C94470044
:100020000C9447000C9447000C9447000C94470034
:100030000C9447000C9447000C9447000C94470024
:100040000C9447000C9447000C9447000C94470014
:100050000C94470011241FBECFE5D8E0DEBFCDBF12
:1000600010E0A0E6B0E0E6E0F9E002C005900D92F5
:10007000AC36B107D9F720E0ACE6B0E001C01D9284
:10008000A138B207E1F70E9468010C9481040C9436
:10009000000088B38E7F88BB85E08A95F1F7000069
:1000A00088B3816088BB0895CF93C62F882321F041
:1000B00088B3826088BB03C088B38D7F88BB80B360
:1000C0008F709C2F907F892B82BB0E94490080B348
:1000D00090E1C99FB00111248F70682B62BB0E9410
:1000E00049008FE39FE10197F1F700C00000CF9135
:1000F000089587B3836087BB81B3806F81BB88B36A
:100100008E7F88BB80B38F70806382BB2FEF81EEC0
:1001100094E0215080409040E1F700C000000E9430
:1001200049008FE19EE40197F1F700C000000E94B2
:1001300049008FE891E00197F1F700C000000E94AC
:1001400049008FE891E00197F1F700C0000080B30B
:100150008F70806282BB0E9449008FE891E0019716
:10016000F1F700C000006CE280E00E94540068E0FB
:1001700080E00E94540061E080E00E94540066E04C
:1001800080E00E9454006CE080E00E9454000895DA
:10019000CF93DF93EC016881662329F081E00E9410
:1001A00054002196F8CFDF91CF91089511B888E4DB
:1001B00080B9089594EA96BF06B607FEFDCF91B1C7
:1001C000987F983071F483B984E886BF06B607FE3D
:1001D000FDCF81B1887F883131F0803231F482E007
:1001E000089580E0089581E0089583E0089594EAF9
:1001F00096BF06B607FEFDCF91B1987F903171F49E
:1002000083B984E886BF06B607FEFDCF81B1887F3B
:10021000803431F0883431F482E0089580E008952C
:1002200081E0089583E0089583B984E886BF06B627
:1002300007FEFDCF81B1887F883221F0803321F421
:1002400081E0089580E0089582E0089584EC86BFFF
:1002500006B607FEFDCF83B1089584E886BF06B6D3
:1002600007FEFDCF83B1089584E986BF06B604FC7E
:10027000FDCF089587B18F7D87B987B1806487B935
:1002800087B18F7787B986B1816086B986B1826080
:1002900086B986B1846086B9089597B1907F97B981
:1002A00097B1892B87B986B1806886B985E38A952D
:1002B000F1F7000086B1806486B9349BFECF86B129
:1002C000806186B986B18F7786B984B195B108957A
:1002D00084B3846084BB84B3886084BB85B3886046
:1002E00085BB81B3877F81BB8CE085BF80E88BBFF6
:1002F000F8940E9479000E94D6000E943A017894F6
:100300008FE39CE90197F1F700C0000061E080E015
:100310000E94540080E090E00E944D01BC01990FC2
:10032000880B990B0E9453032BE532E44EE75EE302
:100330000E94DF0320E030E04EEF52E40E94AE0264
:100340000E941B03DC01CB019093800080937F000F
:100350004AE066E770E00E944C0460E880E00E949A
:10036000540080E690E00E94C80063E880E00E94AC
:10037000540086E790E00E94C80081E090E00E946F
:100380004D01BC01990F880B990B0E9453032BE57B
:1003900032E44EE75EE30E94DF0320E030E04EEF00
:1003A00052E40E94AE020E941B03DC01CB01909339
:1003B0007E0080937D004AE061E770E00E944C047B
:1003C00068E880E00E94540084E690E00E94C80043
:1003D0006BE880E00E94540081E790E00E94C80032
:1003E00082E090E00E944D01BC01990F880B990BAF
:1003F0000E9453032BE532E44EE75EE30E94DF03E5
:1004000020E030E04EEF52E40E94AE020E941B0357
:10041000DC01CB0190937C0080937B004AE06CE68A
:1004200070E00E944C0460EC80E00E94540088E67A
:1004300090E00E94C80063EC80E00E9454008CE6CB
:1004400090E00E94C80062CF1F920F920FB60F92E9
:1004500011242F933F934F935F936F937F938F93C9
:100460009F93AF93BF93EF93FF9385B3846085BB56
:100470002FEF89E698E1215080409040E1F700C0DD
:10048000000085B38B7F85BB8FE39CE90197F1F773
:1004900000C0000080E20E94DA008FE19EE4019734
:1004A000F1F700C0000080917F000E9414019FEFCF
:1004B00029E688E1915020408040E1F700C000002B
:1004C0000E94260182E20E94F7008FE19EE40197DC
:1004D000F1F700C0000080917D000E9414019FEFA1
:1004E00029E688E1915020408040E1F700C00000FB
:1004F0000E94260184E20E94F7008FE19EE40197AA
:10050000F1F700C0000080917B000E9414019FEF72
:1005100029E688E1915020408040E1F700C00000CA
:100520000E942D019FEF20E782E091502040804003
:10053000E1F700C000000E943401FF91EF91BF91EC
:10054000AF919F918F917F916F915F914F913F916B
:100550002F910F900FBE0F901F9018955058BB27EA
:10056000AA270E94C6020C94A5030E94970338F0A4
:100570000E949E0320F039F49F3F19F426F40C9456
:1005800094030EF4E095E7FB0C948E03E92F0E9490
:10059000B60358F3BA17620773078407950720F06C
:1005A00079F4A6F50C94D8030EF4E0950B2EBA2F2F
:1005B000A02D0B01B90190010C01CA01A001112469
:1005C000FF27591B99F0593F50F4503E68F11A1615
:1005D000F040A22F232F342F4427585FF3CF4695A6
:1005E00037952795A795F0405395C9F77EF41F16C8
:1005F000BA0B620B730B840BBAF09150A1F0FF0F92
:10060000BB1F661F771F881FC2F70EC0BA0F621F7D
:10061000731F841F48F4879577956795B795F7956D
:100620009E3F08F0B0CF9395880F08F09927EE0F02
:100630009795879508950E9422036894B1110C94B0
:10064000D90308950E94BE0388F09F5798F0B92FF0
:100650009927B751B0F0E1F0660F771F881F991FF7
:100660001AF0BA95C9F714C0B13091F00E94D803BE
:10067000B1E008950C94D803672F782F8827B85FCE
:1006800039F0B93FCCF3869577956795B395D9F74F
:100690003EF490958095709561957F4F8F4F9F4F59
:1006A0000895E89409C097FB3EF490958095709565
:1006B00061957F4F8F4F9F4F9923A9F0F92F96E9AE
:1006C000BB279395F695879577956795B795F11123
:1006D000F8CFFAF4BB0F11F460FF1BC06F5F7F4FC0
:1006E0008F4F9F4F16C0882311F096E911C07723D2
:1006F00021F09EE8872F762F05C0662371F096E8DB
:10070000862F70E060E02AF09A95660F771F881FA9
:10071000DAF7880F9695879597F9089597F99F6767
:1007200080E870E060E008959FEF80EC0895002479
:100730000A941616170618060906089500240A9446
:1007400012161306140605060895092E0394000CCC
:1007500011F4882352F0BB0F40F4BF2B11F460FF5B
:1007600004C06F5F7F4F8F4F9F4F089557FD905884
:10077000440F551F59F05F3F71F04795880F97FB65
:10078000991F61F09F3F79F087950895121613061F
:100790001406551FF2CF4695F1DF08C0161617064E
:1007A0001806991FF1CF8695710561050894089583
:1007B000E894BB2766277727CB0197F908950E9415
:1007C000F2030C94A5030E94970338F00E949E0345
:1007D00020F0952311F00C948E030C9494031124B3
:1007E0000C94D9030E94B60370F3959FC1F3950F43
:1007F00050E0551F629FF001729FBB27F00DB11DA5
:10080000639FAA27F00DB11DAA1F649F6627B00D34
:10081000A11D661F829F2227B00DA11D621F739F1D
:10082000B00DA11D621F839FA00D611D221F749F2B
:100830003327A00D611D231F849F600D211D822F72
:10084000762F6A2F11249F5750409AF0F1F0882399
:100850004AF0EE0FFF1FBB1F661F771F881F9150C6
:100860005040A9F79E3F510580F00C948E030C94E4
:10087000D9035F3FE4F3983ED4F386957795679567
:10088000B795F795E7959F5FC1F7FE2B880F911DF0
:100890009695879597F90895BB274A3031F49923A7
:1008A00022F4BDE2909581959F4F0C945804BB278C
:1008B000FB015527AA27880F991FAA1FA41710F01C
:1008C000A41B83955051B9F7A05DAA3308F0A95D28
:1008D000A193009779F7B111B1931192CB010C94C8
:1008E0007104DC01FC01672F71917723E1F73297E6
:1008F00004C07C916D9370836291AE17BF07C8F3FB
:060900000895F894FFCFFA
:0C09060045313A0045323A0045333A00D2
:00000001FF
