:0400000044EF05F0D4
:100800000050726F796563746F2033204A6F73658F
:100810002052696F73004C656420456E63656E6499
:1008200069646F004C6564204170616761646F00AA
:0108300000C7
:10083200000E0A6E08BE22EF04F020EF04F02CEF47
:1008420004F0081E071E061E056C000E0622072273
:100852000822010E0A6E04BE33EF04F031EF04F0F9
:100862003DEF04F0041E031E021E016C000E022264
:1008720003220422010E0A1A000E0B6E000E0C6EE9
:10088200000E0D6E000E0E6E0550061007100810B9
:10089200D8B44EEF04F050EF04F086EF04F0010EEE
:1008A200096E5AEF04F0D890053606360736083638
:1008B200092A08AE5FEF04F061EF04F054EF04F090
:1008C200D8900B360C360D360E360550015C0650AC
:1008D20002580750035808500458D8A073EF04F088
:1008E20075EF04F07EEF04F00550015E0650025AE7
:1008F2000750035A0850045A0B80D8900832073226
:1009020006320532092E61EF04F00A50D8B48CEF9A
:1009120004F08EEF04F096EF04F00E1E0D1E0C1E76
:100922000B6C000E0C220D220E220BC001F00CC02B
:1009320002F00DC003F00EC004F01200000E0F6EA4
:100942004B0E106E000E116E000E126ED8EC04F0FB
:10095200000E936E010E026E080E036E08EC05F097
:1009620023EC05F0186E310E1818D8A4BBEF04F072
:10097200BDEF04F0C4EF04F0160E026E080E036E13
:1009820008EC05F08180300E1818D8A4CBEF04F0E3
:10099200CDEF04F0B1EF04F0240E026E080E036EE8
:1009A20008EC05F08190B1EF04F000EF00F0000ECA
:1009B200016E2D0E026E310E036E010E046E0FC01B
:1009C20013F010C014F011C015F012C016F0040E8E
:1009D200D8901336143615361636E82EE9EF04F0A1
:1009E20013C005F014C006F015C007F016C008F0D9
:1009F20019EC04F00104176EAC84948E949CAC98AC
:100A0200AC9C17C0AFFFAB8EAC8AAB88120014EF60
:100A120005F002C0F6FF03C0F7FF0800F55039ECFD
:100A220005F0024A032A02C0F6FF03C0F7FF0800DE
:100A3200F5500009D8A420EF05F022EF05F00AEFE7
:100A420005F012009EAA28EF05F02AEF05F037EF15
:100A520005F0ABA22FEF05F031EF05F034EF05F012
:100A6200AB9800F0AB88AE5038EF05F0000E1200E4
:100A7200016E01C0ADFFACA241EF05F043EF05F0FE
:100A82003CEF05F01200000EF86E080EF76E000142
:040A92009FEF04F0DE
:020000040020DA
:08000000FFFFFFFFFFFFFFFF00
:020000040030CA
:0E000000000C181EFF8381FF0FC00FE00F40A1
:00000001FF
